{
  "contractName": "DappToken",
  "abi": [
    {
      "inputs": [],
      "payable": false,
      "stateMutability": "nonpayable",
      "type": "constructor"
    },
    {
      "constant": true,
      "inputs": [],
      "name": "totalSupply",
      "outputs": [
        {
          "internalType": "uint256",
          "name": "",
          "type": "uint256"
        }
      ],
      "payable": false,
      "stateMutability": "view",
      "type": "function"
    }
  ],
  "bytecode": "0x6080604052348015600f57600080fd5b50620f42406000819055506084806100286000396000f3fe6080604052348015600f57600080fd5b506004361060285760003560e01c806318160ddd14602d575b600080fd5b60336049565b6040518082815260200191505060405180910390f35b6000548156fea265627a7a72315820aa4490b480fd5a7f03cbc7f1623eed80c92e25f1036731b8bfa1757d899d985164736f6c63430005100032",
  "source": "pragma solidity ^0.5.0;\r\n\r\ncontract DappToken {\r\n\r\n\tuint256 public totalSupply;\r\n\r\n\tconstructor () public {\r\n\t\ttotalSupply = 1000000; // one million\r\n\t}\r\n}",
  "sourcePath": "C:/Users/Joseph/Documents/Crypto Projects/Tutorials/token_sale/contracts/DappToken.sol",
  "compiler": {
    "name": "solc",
    "version": "0.5.16+commit.9c3226ce.Emscripten.clang"
  },
  "schemaVersion": "3.4.0",
  "updatedAt": "2021-05-03T02:24:26.542Z",
  "networkType": "ethereum",
  "devdoc": {
    "methods": {}
  },
  "userdoc": {
    "methods": {}
  }
}